{
  "contractName": "Voting",
  "abi": [
    {
      "anonymous": false,
      "inputs": [
        {
          "indexed": true,
          "internalType": "uint256",
          "name": "candidateId",
          "type": "uint256"
        },
        {
          "indexed": true,
          "internalType": "address",
          "name": "voter",
          "type": "address"
        }
      ],
      "name": "Voted",
      "type": "event"
    },
    {
      "inputs": [
        {
          "internalType": "uint256",
          "name": "",
          "type": "uint256"
        }
      ],
      "name": "candidates",
      "outputs": [
        {
          "internalType": "uint256",
          "name": "id",
          "type": "uint256"
        },
        {
          "internalType": "string",
          "name": "name",
          "type": "string"
        },
        {
          "internalType": "uint256",
          "name": "voteCount",
          "type": "uint256"
        }
      ],
      "stateMutability": "view",
      "type": "function"
    },
    {
      "inputs": [],
      "name": "nextCandidateId",
      "outputs": [
        {
          "internalType": "uint256",
          "name": "",
          "type": "uint256"
        }
      ],
      "stateMutability": "view",
      "type": "function"
    },
    {
      "inputs": [
        {
          "internalType": "address",
          "name": "",
          "type": "address"
        }
      ],
      "name": "voters",
      "outputs": [
        {
          "internalType": "bool",
          "name": "",
          "type": "bool"
        }
      ],
      "stateMutability": "view",
      "type": "function"
    },
    {
      "inputs": [
        {
          "internalType": "string",
          "name": "_name",
          "type": "string"
        }
      ],
      "name": "addCandidate",
      "outputs": [],
      "stateMutability": "nonpayable",
      "type": "function"
    },
    {
      "inputs": [
        {
          "internalType": "uint256",
          "name": "_candidateId",
          "type": "uint256"
        }
      ],
      "name": "vote",
      "outputs": [],
      "stateMutability": "nonpayable",
      "type": "function"
    }
  ],
  "bytecode": "0x608060405234801561001057600080fd5b50610c49806100206000396000f3fe608060405234801561001057600080fd5b5060043610610074576000357c0100000000000000000000000000000000000000000000000000000000900480630121b93f146100795780633477ee2e14610095578063462e91ec146100c7578063a3ec138d146100e3578063d16ff4c814610113575b600080fd5b610093600480360381019061008e919061047c565b610131565b005b6100af60048036038101906100aa919061047c565b6102e0565b6040516100be93929190610548565b60405180910390f35b6100e160048036038101906100dc91906106bb565b610392565b005b6100fd60048036038101906100f89190610762565b61040c565b60405161010a91906107aa565b60405180910390f35b61011b61042c565b60405161012891906107c5565b60405180910390f35b600260003373ffffffffffffffffffffffffffffffffffffffff1673ffffffffffffffffffffffffffffffffffffffff16815260200190815260200160002060009054906101000a900460ff16156101be576040517f08c379a00000000000000000000000000000000000000000000000000000000081526004016101b59061082c565b60405180910390fd5b60008060008381526020019081526020016000206000015403610216576040517f08c379a000000000000000000000000000000000000000000000000000000000815260040161020d90610898565b60405180910390fd5b600080828152602001908152602001600020600201600081548092919061023c906108e7565b91905055506001600260003373ffffffffffffffffffffffffffffffffffffffff1673ffffffffffffffffffffffffffffffffffffffff16815260200190815260200160002060006101000a81548160ff0219169083151502179055503373ffffffffffffffffffffffffffffffffffffffff16817f030b0f8dcd86a031eddb071f91882edeac8173663ba775713b677b42b51be44b60405160405180910390a350565b60006020528060005260406000206000915090508060000154908060010180546103099061095e565b80601f01602080910402602001604051908101604052809291908181526020018280546103359061095e565b80156103825780601f1061035757610100808354040283529160200191610382565b820191906000526020600020905b81548152906001019060200180831161036557829003601f168201915b5050505050908060020154905083565b60405180606001604052806001548152602001828152602001600081525060008060015481526020019081526020016000206000820151816000015560208201518160010190816103e39190610b41565b506040820151816002015590505060016000815480929190610404906108e7565b919050555050565b60026020528060005260406000206000915054906101000a900460ff1681565b60015481565b6000604051905090565b600080fd5b600080fd5b6000819050919050565b61045981610446565b811461046457600080fd5b50565b60008135905061047681610450565b92915050565b6000602082840312156104925761049161043c565b5b60006104a084828501610467565b91505092915050565b6104b281610446565b82525050565b600081519050919050565b600082825260208201905092915050565b60005b838110156104f25780820151818401526020810190506104d7565b60008484015250505050565b6000601f19601f8301169050919050565b600061051a826104b8565b61052481856104c3565b93506105348185602086016104d4565b61053d816104fe565b840191505092915050565b600060608201905061055d60008301866104a9565b818103602083015261056f818561050f565b905061057e60408301846104a9565b949350505050565b600080fd5b600080fd5b7f4e487b7100000000000000000000000000000000000000000000000000000000600052604160045260246000fd5b6105c8826104fe565b810181811067ffffffffffffffff821117156105e7576105e6610590565b5b80604052505050565b60006105fa610432565b905061060682826105bf565b919050565b600067ffffffffffffffff82111561062657610625610590565b5b61062f826104fe565b9050602081019050919050565b82818337600083830152505050565b600061065e6106598461060b565b6105f0565b90508281526020810184848401111561067a5761067961058b565b5b61068584828561063c565b509392505050565b600082601f8301126106a2576106a1610586565b5b81356106b284826020860161064b565b91505092915050565b6000602082840312156106d1576106d061043c565b5b600082013567ffffffffffffffff8111156106ef576106ee610441565b5b6106fb8482850161068d565b91505092915050565b600073ffffffffffffffffffffffffffffffffffffffff82169050919050565b600061072f82610704565b9050919050565b61073f81610724565b811461074a57600080fd5b50565b60008135905061075c81610736565b92915050565b6000602082840312156107785761077761043c565b5b60006107868482850161074d565b91505092915050565b60008115159050919050565b6107a48161078f565b82525050565b60006020820190506107bf600083018461079b565b92915050565b60006020820190506107da60008301846104a9565b92915050565b7f596f75206861766520616c726561647920766f74656400000000000000000000600082015250565b60006108166016836104c3565b9150610821826107e0565b602082019050919050565b6000602082019050818103600083015261084581610809565b9050919050565b7f496e76616c69642063616e646964617465204944000000000000000000000000600082015250565b60006108826014836104c3565b915061088d8261084c565b602082019050919050565b600060208201905081810360008301526108b181610875565b9050919050565b7f4e487b7100000000000000000000000000000000000000000000000000000000600052601160045260246000fd5b60006108f282610446565b91507fffffffffffffffffffffffffffffffffffffffffffffffffffffffffffffffff8203610924576109236108b8565b5b600182019050919050565b7f4e487b7100000000000000000000000000000000000000000000000000000000600052602260045260246000fd5b6000600282049050600182168061097657607f821691505b6020821081036109895761098861092f565b5b50919050565b60008190508160005260206000209050919050565b60006020601f8301049050919050565b60008160020a8302905092915050565b6000600883026109f47fffffffffffffffffffffffffffffffffffffffffffffffffffffffffffffffff826109b4565b6109fe86836109b4565b95508019841693508086168417925050509392505050565b6000819050919050565b6000610a3b610a36610a3184610446565b610a16565b610446565b9050919050565b6000819050919050565b610a5583610a20565b610a69610a6182610a42565b8484546109c4565b825550505050565b600090565b610a7e610a71565b610a89818484610a4c565b505050565b5b81811015610aad57610aa2600082610a76565b600181019050610a8f565b5050565b601f821115610af257610ac38161098f565b610acc846109a4565b81016020851015610adb578190505b610aef610ae7856109a4565b830182610a8e565b50505b505050565b60008160020a8304905092915050565b6000610b1860001984600802610af7565b1980831691505092915050565b6000610b318383610b07565b9150826002028217905092915050565b610b4a826104b8565b67ffffffffffffffff811115610b6357610b62610590565b5b610b6d825461095e565b610b78828285610ab1565b600060209050601f831160018114610bab5760008415610b99578287015190505b610ba38582610b25565b865550610c0b565b601f198416610bb98661098f565b60005b82811015610be157848901518255600182019150602085019450602081019050610bbc565b86831015610bfe5784890151610bfa601f891682610b07565b8355505b6001600288020188555050505b50505050505056fea264697066735822122005419dcfcb58dc418dbdfdd314129c2e4cbce69bbb0bcc2e0c38095f279c563a64736f6c63430008150033",
  "immutableReferences": {},
  "source": "pragma solidity ^0.8.0;\r\n\r\ncontract Voting {\r\n  struct candidate {\r\n    uint256 id;\r\n    string name;\r\n    uint256 voteCount;\r\n  }\r\n\r\n  mapping(uint256 => candidate) public candidates;\r\n  uint256 public nextCandidateId;\r\n  mapping(address => bool) public voters;\r\n\r\n  event Voted( uint256 indexed candidateId, address indexed voter);\r\n\r\n  function addCandidate(string memory _name)\r\nexternal{\r\n   candidates[nextCandidateId] = \r\n  candidate(nextCandidateId, _name, 0);\r\n   nextCandidateId++;\r\n}\r\n\r\n function vote(uint256 _candidateId) external {\r\n   require( !voters[msg.sender], \"You have already voted\");\r\n   require( candidates[_candidateId].id != 0, \"Invalid candidate ID\");\r\n\r\n   candidates[_candidateId].voteCount++;\r\n   voters[msg.sender]= true;\r\n   emit Voted(_candidateId, msg.sender);\r\n }\r\n  \r\n}",
  "sourcePath": "C:\\Users\\Tunji Owolabi\\Documents\\Smart Contract\\smart_contract\\contracts\\Voting.sol",
  "compiler": {
    "name": "solc",
    "version": "0.8.21+commit.d9974bed.Emscripten.clang"
  },
  "schemaVersion": "3.4.16",
  "updatedAt": "2024-05-04T17:56:53.231Z",
  "devdoc": {
    "kind": "dev",
    "methods": {},
    "version": 1
  },
  "userdoc": {
    "kind": "user",
    "methods": {},
    "version": 1
  }
}